:020000040800F2
:10000000E8070020F1010008155400080B4800081B
:1000100011500008B10A000819640008000000002F
:10002000000000000000000000000000AD580008C3
:10003000450B0008000000008D560008D15900084B
:100040000B0200080B0200080B0200080B0200085C
:100050000B0200080B0200080B0200080B0200084C
:100060000B0200080B0200080B020008D50A00086A
:100070000B0200080B0200080B0200080B0200082C
:100080000B02000800000000950800080B020008A1
:100090000B0200080B0200080B0200080B0200080C
:1000A0000B0200080B0200080B0200080B020008FC
:1000B0000B0200080B0200080B0200080B020008EC
:1000C0000B0200080B0200080B0200080B020008DC
:1000D0000B0200080B0200080B0200080D64000868
:1000E0000B0200080B0200080B0200080B020008BC
:1000F0000B0200080B0200080B02000800000000C1
:10010000000000000B020008000000000B020008C5
:100110000B020008000000000B0200080B020008A0
:100120000B0200080B0200080B0200080B0200087B
:100130000B02000800000000000000000B02000895
:100140000B0200080B020008000000000000000085
:10015000000000000000000000000000000000009F
:100160000000000000000000000000000B0200087A
:100170000B0200080000000000000000000000006A
:10018000000000000B02000800000000000000005A
:10019000000000000000000000000000000000005F
:1001A00000000000000000000B0200080B02000825
:1001B0000B0200080B0200080B0200080000000000
:1001C000000000000B02000800000000000000001A
:1001D0000B0200080B020008DFF810D000F0A2FAB2
:1001E0000048004701730008AFF30080E8070020D3
:1001F0000648804706480047FEE7FEE7FEE7FEE7C1
:10020000FEE7FEE7FEE7FEE7FEE7FEE7495A0008E5
:10021000D90100082DE9F05F0546002092469B4673
:1002200088460646814640241BE02846414647460C
:10023000224600F06AF853465A46C01A914110D33C
:1002400011461846224600F051F82D1A67EB0108B6
:100250004F4622460120002100F048F817EB000924
:100260004E41201EA4F10104DFDC484631462A46F7
:100270004346BDE8F09FD2B201E000F8012B491ED1
:10028000FBD270470022F6E710B513460A46044633
:100290001946FFF7F0FF204610BD00F0004230F095
:1002A00000400AD0C10D01F56071C0F3160042EAAA
:1002B0000151C208400711437047002001467047B2
:1002C00030B50B46014600202022012409E021FA26
:1002D00002F59D4205D303FA02F5491B04FA02F523
:1002E0002844151EA2F10102F1DC30BD202A04DBF6
:1002F000203A00FA02F1002070479140C2F1200339
:1003000020FA03F3194390407047202A04DB203A77
:1003100021FA02F00021704721FA02F3D040C2F125
:1003200020029140084319467047F0B400F00042A3
:1003300021F0004120F00040CE0DC30DC1F31601A5
:1003400041F40001C0F316004C42154640F4000091
:10035000761E09E010EB440002D582F000424042D4
:100360008842F7D840005B1EB342F9DA18B1F0BCFE
:10037000002100F004BA2846F0BC70472DE9FE4F7A
:10038000804681EA0300C00F0C46009021F0004136
:1003900023F00045B8EB0200A94105D240462146B2
:1003A00090461C460B46024623F00040104347D0BF
:1003B000270DC7F30A00C3F30A510290401A0190B7
:1003C00040286BDAC3F3130040F4801B0098924678
:1003D00020B10023D2EB030A63EB0B0B01985946C3
:1003E000C0F140025046FFF781FF06460D465046D9
:1003F0005946019A00F0A8F910EB08006141002469
:1004000087EA115284EAE7731A4340D0009A62B334
:10041000019A012A4FEA075215DC001B61EB020129
:100420004FF0004202EA0752CDE90042001C41F5BC
:10043000801132462B4600F0DFF903B0BDE8F08FA3
:1004400040462146F9E7001B61EB0201001C41F523
:10045000801300185B412018A2F5001747EB030139
:1004600040EAD570B6196D4111E06D084FEA3606C5
:1004700045EAC0754FEA0752001B61EB0201001C00
:1004800041F5801149084FEA3000001951413246C8
:100490002B4603B0BDE8F04F00F09FB90098012251
:1004A00040000023D0EB020263EBE073009821468A
:1004B0004FEAE074B8EB000061EB0401E9E783F078
:1004C00000435BE781F0004158E72DE9FE4F81EAE8
:1004D000030404F0004421F0004100944FF0000BAD
:1004E00023F0004350EA01045ED052EA03045BD0DB
:1004F000C3F30A54C1F30A552C44A4F2F334019413
:10050000A0FB0254C1F3130141F48011C3F31303A0
:1005100043F4801301FB024400FB034E840A970A54
:1005200044EA815447EA8357A4FB076802958D0A81
:1005300005FB07854FEA932C04FB0C542705029D0D
:100540004FEA065847EA1637B5EB08056EEB070C7D
:10055000870E920E47EA811742EA8312A7FB020137
:10056000B6EB0B0164EB00042B0D43EA0C335E1871
:1005700044EB1C50DA465146E7FB0201C5F3130475
:100580004FEA0B3343EA14534FEA0432019C43EA27
:100590000603A4F10C040294009CCDE900B400F021
:1005A0002BF903B0BDE8F08F00200146F9E72DE9F3
:1005B000F04D81EA030404F0004B21F0004514469D
:1005C0004FF0000A23F0004150EA050220D054EA1F
:1005D00001021DD0C5F30A570246C5F31303C1F348
:1005E0001300C1F30A5640F4801543F48013A7EBBF
:1005F0000608101BD64608F2FD3873EB050002D33F
:1006000008F1010801E092185B41B8F1000F03DA2C
:1006100000200146BDE8F08D00204FF48011064611
:1006200084460EE0171B73EB050705D3121B63EB23
:10063000050306434CEA010C49084FEA30009218C2
:100640005B4150EA0107EDD152EA030012D082EA81
:10065000040083EA0501084305D0101BAB4106D214
:100660000122002306E000224FF0004302E06FF079
:10067000010253101AEB06004CEB085110EB0A0074
:1006800041EB0B01BDE8F04D00F0A7B8C1F30A52F1
:10069000C1F3130140F2FF3341F480119A4202DAB0
:1006A00000200146704740F233439A42A2F233429F
:1006B00002DC5242FFF729BEFFF718BE30B5041E18
:1006C00071F1000404DB4FF00044404264EB01018F
:1006D000141E73F1000405DB1C464FF00043524228
:1006E00063EB0403994208BF904230BD002801DB50
:1006F000C0F10040002901DBC1F10041814202D27A
:100700004FF0004004E04FF0005001D14FF0C040E6
:100710004FEA2062EFF3008162F31F6181F30088EA
:1007200070470000064C074D06E0E06840F001030A
:1007300094E8070098471034AC42F6D3FFF750FD19
:100740003C7600085C760008202A06DBCB17203AAE
:1007500041FA02F043EAE07306E041FA02F3D040C6
:10076000C2F1200291400843194670470029A8BFF2
:100770007047401C490008BF20F00100704710B4CA
:10078000B0FA80FC00FA0CF050EA010404BF10BC7F
:10079000704749B1CCF1200421FA04F411FA0CF1AC
:1007A00018BF012121430843A3EB0C01CB1D4FEAE5
:1007B00000614FEA102042BF002010BC704700EBE0
:1007C000C35010440029A4BF10BC7047401C49000E
:1007D00008BF20F0010010BC704710B5141E73F163
:1007E000000408DA401C41F1000192185B411A43F1
:1007F00001D120F0010010BD2DE9F04D92469B463D
:1008000011B1B1FA81F202E0B0FA80F220329046E2
:10081000FFF76CFD04460F4640EA0A0041EA0B016F
:1008200053465A46084313D0114653EA010019D0E3
:10083000C8F140025046FFF768FD05460E46504697
:1008400059464246FFF752FD084305D0012004E017
:1008500020463946BDE8F08D0020054346EAE076A3
:100860002C4337430A986305E40AA0EB08000022F2
:10087000FD0A44EA47540A3002D500200146E9E760
:10088000010510196941DDE9084500196941BDE814
:10089000F04DA2E710B5044801F084FABDE810401D
:1008A000024801F07FBA00004C000020B800002090
:1008B0002DE9F041044600270D46006804F042F897
:1008C0000646206804F036F830435DD02068C168E1
:1008D0002E4E890105D5617F012902D1217F012991
:1008E0000BD0022D1DD0206804F02CF8B8B1206880
:1008F0008168C1F3400169B111E00125244902E09A
:100900008F4232D27F1C0268D2435206F8D4402173
:100910000160E8E78168314041F010018160012DFC
:1009200011D0206804F006F848B120688168C1F34E
:10093000400121B98168314041F020018160022DE0
:1009400008D0032D04D0042502F0E6F8064617E08F
:100950000C25F9E70825F7E702F0DEF8801B0528EB
:100960000ED92068806828420AD0E06D40F010005F
:10097000E065206E40F0010020660120BDE8F081B6
:10098000206880682842E7D10020F7E7C0FFFF7F9A
:10099000000040A370B50446006881688268C1F316
:1009A000400112F0010F28D039BB816801F00D0120
:1009B000012914D18168124A1140891C8160216883
:1009C0000320086002F0A8F8054612E002F0A4F83F
:1009D000401B02280DD920688068C00709D0E06D4F
:1009E00040F01000E065206E40F00100206601201C
:1009F00070BD20688068C007E8D1002070BD00008D
:100A0000C0FFFF7FF8B50446002000902068816891
:100A100011F0010F41D18168214A11422ED1816824
:100A2000D5432940491C81601E48806800F0E07071
:100A300000020DD51C481D490068B0FBF1F0401CB8
:100A400000EB4000800000E0401E00900028FBD139
:100A500002F062F806461BE0816811F0010F03D135
:100A600081682940491C816002F056F8801B0228E9
:100A70000ED920680068C043C00709D0E06D40F07F
:100A80001000E065206E40F0010020660120F8BDF6
:100A900020680168C943C907DED10020F8BD000005
:100AA0003F0000800003005010000020400D0300B4
:100AB000FEE7000010B50021054801F07FFD00228F
:100AC000BDE810404FF400631146014801F064BDD9
:100AD0004C010020014801F022BE00001C03002050
:100AE0000D4902688A4201D20C4901E00B492031CC
:100AF000D2B21423083AB2FBF3F2436C02F01F02A5
:100B000023F003031944816404498031C164012145
:100B1000914001657047000008040240000802404F
:100B20000179074A02EB81024265054A4432491EB7
:100B3000826501F01F0201219140C16570470000EC
:100B4000FC0802407047000070B5194D4FF48061F9
:100B5000284601F0D7FF04464FF40061284601F013
:100B6000D1FF05464FF40051124801F0CBFF124966
:100B70004A79A24206D024B90A68012D08D0521E33
:100B80000A604C710023012220B1CB800A7270BD33
:100B9000521CF5E7C888401C80B2C8801428F6D3E0
:100BA0001420C880087A0128F1D10B720A7170BD37
:100BB00000040048000800487C03002072B6FEE7ED
:100BC00070B52DED028B88B004F025FC00213DA20C
:100BD000084604F096FC404803F05EF90C213E48BC
:100BE00003F03EFB00213C4803F03AFB00213A4869
:100BF00003F0B0F80421384803F032FB04213648F2
:100C000003F0A8F80821344803F02AFB08213248F1
:100C100003F0A0F830480068416C41F400414164A1
:100C20009FED2E8A01A96846B0EE480A00F05CFAF2
:100C30009DEC021A03A902A8F0EE480AB0EE000AE1
:100C400004F025FD06AA05A904A8B2EE081ADDEDF8
:100C5000030A9DED020A04F02BFEDDED040A9FED70
:100C6000200A204C60EE800AFCEEE00A10EE900AAA
:100C70002060DDED050A251D60EE800AFCEEE00A2D
:100C800010EE900A2860DDED060A2E1D20EE800A87
:100C9000BCEEC00A10EE100A30604FF4FA6001F0AA
:100CA000FBFD03F0A3FE104890ED020A0F4880ED13
:100CB000030A40F64D0020602860306008B0BDECAB
:100CC000028B70BD416C69676E696E6720526F74EC
:100CD0006F722E2E2E0000003C020020000000004B
:100CE00000D08445342C0140880300202C000020D3
:100CF0002DE9F04104F08FFB00213CA2084604F0EE
:100D000000FC00213E4803F0ABFA00213C4803F010
:100D100021F804213A4803F0A3FA0421384803F0EB
:100D200019F80821364803F09BFA0821344803F0EB
:100D300011F80C21324803F093FA31480068416CF5
:100D400041F4004141642F4940F64D000860091DFF
:100D50000860091D0860091D41F2950008606420C3
:100D600001F09AFD284800F069FC284800F066FC74
:100D7000234803F091F800252349244B2C462846AC
:100D800020264FF47A770A68D2F800C06FEA0C0C7C
:100D90005FEA8C6CF7D416600A68D2F8802015449C
:100DA0001A68D2F88020401C1444B842EBDB144887
:100DB00003F0A8F8144800F049FD144800F046FD7F
:100DC00000EE105ADFED120A1248B8EE400A80EE2B
:100DD000201A00EE104AB8EE400A80ED011A80EEAB
:100DE000201A80ED021ABDE8F081000043616C69B1
:100DF00062726174696E67204144432E2E2E00009A
:100E00003C020020342C01404C000020B80000209F
:100E100000007A442C00002010B52DED048B88B022
:100E200003F0E4FD7648774C90ED020AD4ED030A16
:100E300030EE608ADFED740A02E000BF38EE208AEF
:100E4000B5EEC08AF1EE10FAF8D3704918EE100A28
:100E5000884202DB38EE608AF8E72088401C80B2C6
:100E60002080142843D30020208094ED060A68498E
:100E700038EE400A10EE100A884201DD30EE600ABA
:100E8000644910EE100A884201D930EE200A84ED40
:100E9000068A9FED611AF2EE061AC0EE010A80EE94
:100EA000A10AD4ED050ADFED5D1A60EEA10ADFEDBF
:100EB0005C1A5C4840EE210AC4ED050A90ED000A78
:100EC000594804F090FB10EE100A84ED040AB0F1CA
:100ED0007C5F03DDB6EE000A84ED040A10EE100A12
:100EE000B0F13F4F03D9BEEE000A84ED040A4F482B
:100EF0000068D0F880104E480068D0F8800000EEFE
:100F0000101AD4ED010AB8EE400A30EE600ADFEDA7
:100F1000490A94ED021A01A960EE208A00EE100A37
:100F20006846B8EE400A30EE410AB0EE001A20EEF4
:100F3000200AF0EE680A40EE010A9FED3F0A20EE1B
:100F4000809AB0EE480A00F0CFF89DED011A9DEDB1
:100F5000000A354868EE810A29EE018A383849EEE0
:100F6000000A9FED379A08EEC08A9FED340AB0EE72
:100F7000491A04F038FB2C48F0EE408AB0EE491ACA
:100F8000F0EE480A94ED040A1C3804F02CFBF0EE55
:100F9000400A9DEC021A03A902A8B0EE680A04F008
:100FA00076FB06AA05A904A8B2EE081ADDED030A2D
:100FB0009DED020A04F07CFCDDED040A9FED210AA0
:100FC000214960EE800AFCEEE00A10EE900A08600B
:100FD000DDED050A091D60EE800AFCEEE00A10EE68
:100FE000900A0860DDED060A091D20EE800ABCEEBD
:100FF000C00A10EE100A086008B0BDEC048B10BDEA
:10100000880300202C000020DB0FC940DB0FC94003
:10101000DB0F4940DB0F49C06F12833A3333733F14
:10102000CDCC4C3D18000020CC0300204C0000200B
:10103000B80000206F12033C3ACD133F00000000BF
:1010400017B7513800D08445342C014010B5B0EEAC
:10105000042A2DED028BF0EE041A9FED1A8ADFEDC3
:101060001A8AF0EE000AB0EE481AB0EE680A174885
:1010700004F0FCFA1548B0EE042AF0EE041AB0EEC3
:10108000481AF0EE000AB0EE680A1C3004F0EEFADE
:101090000E48B0EE082AF0EE081AB0EE481AF7EE45
:1010A000000A9FED0B0A383004F0E0FA04F0B3F9BF
:1010B000BDEC028B0021BDE8104006A2084604F0FA
:1010C00020BA000000000000CDCC4C3E940300206C
:1010D000CDCCCC3D3D3D3D20464F43205265616423
:1010E00079203D3D3D00000070B50C462DED028B92
:1010F0000546B0EE408A05F017FB85ED000AB0EE1C
:10110000480A05F0C9F984ED000ABDEC028B70BDF8
:10111000704700002DE9F84F4FF000080446CDF865
:1011200000800D4694F85820DFF8EC93616947463B
:101130004046012A0AD00126F84A84F8586041B195
:10114000296A012905D0A36EEBB129E00220BDE890
:10115000F88F6868092838D1A96A4FF4785041B1EE
:101160002B6801F07C0100EA53400843E96A084318
:1011700002E0296800EA51402168CB6C1340034328
:10118000CB64606621E0C4E91971A96A286A31B1AB
:1011900001F07C01401E0843E96A084300E0401E5C
:1011A00029682B79C1F3846103F01F03994001433F
:1011B000A06E401EA066636E43EA0103636604D11D
:1011C0002068C16C11401943C164206803F0B6FB6C
:1011D00058B995F8250098B12068C16895F826207F
:1011E00021F4401141EA4251C160206803F0AEFB96
:1011F0008246206803F0A2FB5AEA00000DD0FBE013
:1012000095F8260095F82410400540EA0151206821
:10121000C26822F440121143E6E7A86A30B1E86AD6
:1012200020B195F8250001285ED003E095F825004F
:10123000012804D02068C16821F0007103E0206813
:10124000C16841F00071C16095F83000012852D0AA
:101250002068016921F002010161AA6829682068FB
:10126000B2F1004F38D003F08CFB2068416921F0C7
:101270000041416120686969C268C2F3C10252003D
:1012800091402A69042A44D000EB82002B68026E48
:10129000DFF88CC203F0F84302EA0C020B431A4356
:1012A00042F00041016620682A69A96900EB8200CA
:1012B000026E22F080720A430266297F2268286942
:1012C000012923D05FF0000102EB8000026E22F0C2
:1012D00000720A4302668FE0002203F052FB20688E
:1012E000416941F00041C4E7E06D40F02000E06555
:1012F0004FF00108A8E7D5E90D1001432068026905
:1013000022F4FF7242F002021143A5E74FF0007190
:10131000DAE7002103F008FB400320684FF00001EA
:1013200072D003F001FB90FAA0F0B0FA80F12868C7
:1013300042036ED090FAA0F0B0FA80F0814204D15E
:1013400000221146206803F033FB0121206803F0DE
:10135000EBFA400320684FF001015DD003F0E4FA9E
:1013600090FAA0F0B0FA80F12868420359D090FAC0
:10137000A0F0B0FA80F0814204D10022012120685F
:1013800003F016FB0221206803F0CEFA4003206828
:101390004FF0020148D003F0C7FA90FAA0F0B0FA7B
:1013A00080F12868420344D090FAA0F0B0FA80F0AF
:1013B000814204D100220221206803F0F9FA0321BE
:1013C000206803F0B1FA400320684FF0030133D0E6
:1013D00003F0AAFA90FAA0F0B0FA80F1286842036C
:1013E0002FD090FAA0F0B0FA80F0814204D1002210
:1013F0000321206803F0DCFA2068816811F0010FF6
:1014000022D0B6E000E004E003F08EFAC0F384617D
:101410008DE7C0F3846091E703F086FAC0F384613E
:10142000A2E7C0F38460A6E703F07EFAC0F384610C
:10143000B7E7C0F38460BBE703F076FAC0F38461DA
:10144000CCE7C0F38460D0E72A7B296850F8B03F2E
:10145000C1F3120C23EA0C0302F0180C314A22FAF1
:101460000CF20A4013430360E96849457ED12868BD
:1014700041031CD090FAA0F1B1FA81F1491C01F0AE
:101480001F0109294FEA403132D8002912D000BF8C
:1014900090FAA0F1B1FA81F101F1010101F01F010F
:1014A00006FA01F609D100BFC0F3846109E0C0F378
:1014B0008461E3E7C0F38461EEE790FAA0F1B1FA4A
:1014C00081F101F1010101F01F0146EA816102D1C0
:1014D000C0F3846003E090FAA0F0B0FA80F000F16D
:1014E000010000F01F0000EB400041EA00513AE02B
:1014F00000290ED090FAA0F1B1FA81F101F10101B9
:1015000001F01F0106FA01F60ED100BFC0F384619D
:101510000EE0C0F38461F1E700007F40004010045A
:1015200000F0FF03FFFF070090FAA0F1B1FA81F18C
:1015300001F1010101F01F0146EA816102D1C0F30E
:10154000846003E090FAA0F0B0FA80F000F10100AE
:1015500000F01F002B4A00EB400002EB005041EA74
:10156000000141F00071AA68206800E001E003F08A
:1015700008FA25482A68024240D024488168244B52
:1015800001F0E0719A4202D0224B9A421BD10B0229
:1015900019D42268B2F1A04F30D1826841F4000121
:1015A00022F0E0720A4382601B481C490068B0FBCD
:1015B000F1F0801C00EB4000800000E0401E009035
:1015C0000028FBD11AE0164D164BAA4207D1CD01D7
:1015D00005D422689A4211D041F0807109E0124D81
:1015E000AA420BD14A0209D422689A4206D041F499
:1015F0008001826822F0E0720A43826084F85870A9
:101600004046A4E5000020FE0000088000030050D2
:10161000000021C31000C09010000020400D030006
:10162000000052C700010050000084CB0068B0F1F8
:10163000A04F01D1FFF7F0BB704770472DE9F04193
:1016400004463548806800F01F05206803F076F9ED
:1016500008BB2168C868C96C00F0004011F4C07F65
:1016600000D190B194F85800012814D0012084F8DA
:1016700058002046FFF7C6F902004FF000030CD0D7
:1016800084F858301046BDE8F081E06D40F020004D
:10169000E0650120F7E70220F5E7E06DC00504D51D
:1016A000206E20F00800206600E02366E06D42F224
:1016B0000101884340F48050E065184F21684FF0E5
:1016C000A046B94201D1304600E00846884200D029
:1016D0001DB9E06D20F48010E0656020086084F89A
:1016E00058302068B84200D00646864209D045B13D
:1016F000062D06D0072D04D0E06D40F48010E06583
:10170000C0E7C16811F0007FBCD18168044B19406B
:1017100041F008018160B5E700030050000100506E
:10172000C0FFFF7F2DE9F04104464548806800F086
:101730001F05206803F002F908BB2168C868C96C5E
:1017400000F0004011F4C07F00D190B194F858002F
:10175000012814D0012084F858002046FFF752F9E0
:1017600001004FF000020CD084F858200846BDE874
:10177000F081E06D40F02000E0650120F7E70220F5
:10178000F5E7E06DC00504D5206E20F00800206666
:1017900000E02266E06D42F20103984340F480507D
:1017A000E065284B20684FF0A046984201D13746AB
:1017B00000E00746874200D01DB9E76D27F4801787
:1017C000E7656027076084F858202068C2689202A5
:1017D00003D5426842F480624260A069082820680C
:1017E000426807D022F0400242602068426842F01E
:1017F000200206E022F0200242602068426842F0A7
:10180000400242602068984201D1324600E0024620
:10181000824209D045B1062D06D0072D04D0E06DD7
:1018200040F48010E065A1E7C26812F0007F9DD10E
:101830008268054B1A4042F00802826096E7000079
:101840000003005000010050C0FFFF7F70B5044648
:1018500090F85800012809D0012084F8580002218E
:101860002046FFF725F8050002D014E0022070BDE5
:10187000206803F06BF818B1E06D20F4805009E0A7
:101880002046FFF787F8050005D1E06D20F4885069
:1018900040F00100E065002084F85800284670BD43
:1018A000704770472DE9F047044690F858009CB007
:1018B0000E464FF00009012815D0012084F8580089
:1018C00000251795189520684FF0A04840450ED187
:1018D000284F0097384603F039F88246206803F015
:1018E00035F860B10EE002201CB0BDE8F087E06D75
:1018F00040F02000E06584F858500120F4E7BAF188
:10190000000F09D0E06D40F02000E0654FF00109C4
:1019100084F858504846E7E71748326840F61F7188
:10192000002A826822F4604216D094F8383042EAE5
:10193000433273681A438260D8F80820BB6802F00B
:10194000010203F001031A43E2D1B36832681A437B
:1019500083688B431A430BE08260D8F80820BB6889
:1019600002F0010203F001031A43D1D182688A43D5
:101970008260CDE700010050000300502DE9F84FD0
:1019800000270446009790F85800DFF8E0930D46D2
:10199000B846012811D0012684F85860206802F06A
:1019A000D1FF60B1E06D40F02000E0655FF001071D
:1019B00084F858803846BDE8F88F0220FBE7D5E967
:1019C00000210C23206803EA91131844036B01F0F3
:1019D0001F014FF01F0C0CFA01FCC2F3846223EAD2
:1019E0000C038A4013430363206802F0ABFF824676
:1019F000206802F09FFF5AEA00003CD1AA682968DB
:101A00002068B2F1004F37D002F0ACFF2068416986
:101A100021F00041416120686969C268C2F3C102D6
:101A2000520091402A69042A31D000EB82002B68D1
:101A3000026EDFF83CC303F0F84302EA0C020B43EA
:101A40001A4342F00041016620682A69A96900EB47
:101A50008200026E22F080720A430266297F2268A9
:101A60002869012910D0002102EB8000026E22F0CB
:101A700000720A4302667DE0002202F073FF2068D4
:101A8000416941F00041C5E74FF00071ECE70021EA
:101A900002F044FF400320684FF0000172D002F0D2
:101AA0003DFF90FAA0F0B0FA80F1286842036ED0B2
:101AB00090FAA0F0B0FA80F0814204D100221146E1
:101AC000206802F06DFF0121206802F027FF40032B
:101AD00020684FF001015DD002F020FF90FAA0F0E5
:101AE000B0FA80F12868420359D090FAA0F0B0FA19
:101AF00080F0814204D100220121206802F050FFD1
:101B00000221206802F00AFF400320684FF0020122
:101B100048D002F003FF90FAA0F0B0FA80F12868F4
:101B2000420344D090FAA0F0B0FA80F0814204D190
:101B300000220221206802F033FF0321206802F016
:101B4000EDFE400320684FF0030133D002F0E6FEC3
:101B500090FAA0F0B0FA80F1286842032FD090FAF2
:101B6000A0F0B0FA80F0814204D100220321206865
:101B700002F016FF2068816811F0010F22D0ACE05E
:101B800000E004E002F0CAFEC0F384618DE7C0F318
:101B9000846091E702F0C2FEC0F38461A2E7C0F363
:101BA0008460A6E702F0BAFEC0F38461B7E7C0F331
:101BB0008460BBE702F0B2FEC0F38461CCE7C0F3FF
:101BC0008460D0E72A7B296850F8B03FC1F3120C3B
:101BD00023EA0C0302F0180C664A22FA0CF20A40BF
:101BE00013430360E968494577D1286841031CD055
:101BF00090FAA0F1B1FA81F1491C01F01F01092905
:101C00004FEA403132D8002912D000BF90FAA0F13B
:101C1000B1FA81F101F1010101F01F0106FA01F6AB
:101C200009D100BFC0F3846109E0C0F38461E3E738
:101C3000C0F38461EEE790FAA0F1B1FA81F101F10D
:101C4000010101F01F0146EA816102D1C0F3846005
:101C500003E090FAA0F0B0FA80F000F1010000F08B
:101C60001F0000EB400041EA005132E000290ED095
:101C700090FAA0F1B1FA81F101F1010101F01F0127
:101C800006FA01F606D100BFC0F3846106E0C0F396
:101C90008461F1E790FAA0F1B1FA81F101F101015B
:101CA00001F01F0146EA816102D1C0F3846003E0C4
:101CB00090FAA0F0B0FA80F000F1010000F01F00EF
:101CC0002D4A00EB400002EB005041EA000141F0D8
:101CD0000071AA68206802F045FE28482A6802427E
:101CE0003FF466AE26488168264B01F0E0719A42C7
:101CF00002D0254B9A421CD10B021AD42268B2F1B1
:101D0000A04F7FF455AE826841F4000122F0E072EA
:101D10000A4382601D481E490068B0FBF1F0401C78
:101D200000EB4000800000E0401E00900028FBD146
:101D30003EE6184D184BAA4207D1CD0105D42268C2
:101D40009A42F5D041F0807109E0144DAA42EFD1DA
:101D50004A02EDD422689A42EAD041F480018268B6
:101D600022F0E0720A43826022E6000000007F4019
:101D700000F0FF03FFFF0700000020FE00000880C6
:101D800000030050000021C31000C090100000208C
:101D9000400D0300000052C700010050000084CB3A
:101DA000704770472DE9F05F044600680668456893
:101DB000DFF854B2DBF8080000F01F07B0070ED5BB
:101DC000A8070CD5E06DC00603D4E06D40F40060B8
:101DD000E0652046FFF79CF9216802200860DFF8E3
:101DE0002CA270074FF0A04801D5680703D4300734
:101DF00037D5280735D5E06DC00603D4E06D40F433
:101E00000070E065206802F0A5FD20B32068504511
:101E100001D1424600E00246824208D03FB1052F80
:101E200005D0092F03D0504503D1414602E0C168D7
:101E300001E00146C96889040DD4016809070AD583
:101E400002F080FD58B3E06D40F01000E065206EB8
:101E500040F0010020662046FFF7A2FF21680C2019
:101E60000860B00601D5A80603D4700658D56806E8
:101E700056D5E06DC00603D4E06D40F40050E06537
:101E80002068C16C11F4C07F1AD00021894602F08D
:101E900061FD02462068504514D1434613E0206896
:101EA000416821F00C014160E06D20F48070E06534
:101EB000E06DC004CFD4E06D40F00100E065CAE7FA
:101EC0000121E3E70346834208D03FB1062F05D046
:101ED000072F03D0504503D1414602E0C16801E01D
:101EE0000146C968B9F1000F14D08B0102D58AB13F
:101EF0008A040FD4026852060CD589020AD402F073
:101F000019FDE8B3E06D40F01000E065206E40F090
:101F1000010020662046FFF789FB216860200860E9
:101F200030060BD5280609D5E06D40F48030E06519
:101F3000204600F067F9216880200860F0050CD584
:101F4000E8050AD5E06D40F40030E0652046FFF773
:101F5000A7FC21684FF480700860B0050CD5A80577
:101F60000AD5E06D40F48020E0652046FFF799FC3B
:101F700021684FF400700860F0062ED5E80600E0F6
:101F800008E02AD5E06BD0B1AFB1DBF8080000F46F
:101F9000604013E02068416821F060014160E06D1D
:101FA00020F48050E065E06DC005B3D4E06D40F0F2
:101FB0000100E065AEE72068C068C00750B1E06D81
:101FC00040F48060E065206E40F00200206620460C
:101FD000FFF7E7FE216810200860700512D568053C
:101FE00010D5E06D40F48040E065206E40F00800C0
:101FF000206621684FF4806008602046BDE8F05FED
:10200000FFF71BBBBDE8F09F00030050000100502C
:10201000F8B54FF0000504002E46009502D0E06DA3
:1020200010B107E00120F8BD204600F0EDF826666B
:1020300084F8586020688168C1F3407119B18168E3
:10204000684A1140816020688168C1F3007189B9D4
:102050008168654A114041F080518160634864495C
:102060000068B0FBF1F04000801C00E0401E0090D2
:102070000028FBD120688168C1F3007141B9E16D8E
:1020800041F01001E165216E41F001012166012559
:1020900002F058FCE16DC90600D430B1E06D40F0AB
:1020A0001000E06501252846F8BDE06D20F4807041
:1020B00040F00200E0652068806810F0010F11D147
:1020C0004FF0A04080684B4900F00100896801F0A2
:1020D0000101084306D148486168826822F47C12F5
:1020E0000A438260E168E06B627F0843A16841EACD
:1020F0004231084394F8241040EA0140012904D1F8
:10210000218D3E4A02EB41410843E16A29B101F4C5
:102110007871226B014342EA01002268D168384B92
:1021200019400143D16020680169626B21F0406170
:1021300011430161206802F0FDFB70BB207F94F821
:102140003810800340EA41022168C86844F2020363
:1021500098431043C86020690028206801690AD0AC
:1021600041F480310161206850F8C01F22696FF38B
:102170000D01114307E021F480310161206850F81E
:10218000C01F6FF30D01016094F8400001280CD0CE
:102190002068016921F0010101616069012820685E
:1021A000016B21F00F0111D013E0D4E911010843B4
:1021B000D4E913121143084321680A6940F2FC7301
:1021C0009A43104340F001000861E6E7226A521E7C
:1021D00011430163E06D20F0020040F00100E06572
:1021E00061E70000C0FFFF5FC0FFFF7F100000201D
:1021F000400D030000010050000300500000FEFFEE
:102200000740F0FF704700002DE9F04198B0044608
:10221000142111A8FEF736F844216846FEF732F87B
:102220004FF40041206800268A032D4D03272D4CD2
:102230004FF09048B0F1A04F10D02B4B98424CD1AA
:102240000F926846009100F063FE08B1FEF7B6FCFD
:102250002868401C286001281FD026E00F9268469D
:10226000009100F055FE08B1FEF7A8FC2868401C5C
:102270002860012807D1E06C40F40050E064E06C75
:1022800000F400501690E06C40F00100E064E06C57
:1022900000F001001690042010E0E06C40F40050C3
:1022A000E064E06C00F400501690E06C40F0010037
:1022B000E064E06C00F00100169040201396CDE938
:1022C000110711A9404600F0F9FA00221146122028
:1022D00000F0C2FC122000F0B1FC18B0BDE8F081A3
:1022E00000000020001002400001005070B5040002
:1022F00004D094F82100002510B106E0012070BD43
:1023000084F82050204600F00BF865626560A560F7
:10231000E56025610120656184F82100002070BD21
:1023200008B500680649884208D10648816C41F02A
:1023300008018164806C00F00800009008BD000076
:10234000000C0240001002402DE9F04790460D4677
:1023500004004FF0000A0FD075B1607901280ED04B
:102360004FF0010984F8059002202071A96808F057
:102370001006042905D04AE00120BDE8F0870220BC
:10238000FBE700F0C9FB07465FEA08004FF00308CF
:1023900009D022E000F0C0FBC01B012803D920684F
:1023A000406B000411D42068406B0004F2D4216813
:1023B000686A086418E000BF00F0AEFBC01B01288B
:1023C0000BD92068406B002807DA206940F008002C
:1023D000206184F804800320CFE72068406B002848
:1023E000EADB2168686A48642068816C40F2FF3249
:1023F000B2409143AA6AB240114381642068C16C23
:10240000FF22B2409143EA6AB2401143C164E869D5
:10241000012808D12268916B1F20B0408143286AAF
:10242000B040084390632068C06B0721B1408843E7
:10243000A969012903D0022957D06969F1B30021A4
:102440006B69AA681A430A434FF4807101FA06F3D4
:1024500098432B79012B00D0002111434FF40072D7
:1024600002FA06F398436B79012B00D0002220F486
:102470004047286842EA0108022838D057EA000796
:10248000216808FA06F03843C863206801684FF4F1
:102490008042B240914301602268116840F6FE70AC
:1024A000B0408143E868B04008431060206801688C
:1024B000C022B24091430160287B00E015E0297CF6
:1024C000C0F3830001F03C0140EA811021680A6EEC
:1024D00040F60F73B3409A43B04002430A6684F853
:1024E000049000206071504647E70121A8E700F002
:1024F00041FF0649884202D947F40047C0E7044932
:102500008842BDD947F48047BAE7000000688909CE
:1025100000B4C40470B5040003D02079002510B1C4
:1025200005E0012070BD6571204600F007F802202B
:102530002071256101202071002070BD10B586B08A
:10254000044614216846FDF79DFE11492068884223
:102550001BD11048C16C41F48031C164C16C01F4DD
:1025600080310591C16C41F00101C164C06C6946C4
:1025700000F0010005901020009003200190002041
:1025800002904FF0904000F099F906B010BD0000A5
:10259000000800500010024018B50024009448B113
:1025A0000068C46B0090104431B114300090036097
:1025B000002018BD012018BD0830F7E7F8B5A8B114
:1025C0004279012A14D00122427102230371056865
:1025D0002F6801F0100402FA04F637432F60154DFE
:1025E000154E2D68B5FBF6F56D1C04E00120F8BD15
:1025F0000220F8BD6D1E0095002DFBD10029016859
:102600000ED00D68A34005F478159D4203D14B68A8
:1026100043F002034B600271002141710846F8BD8E
:102620000B68C3F34403012BF5D14B6843F001035E
:10263000F0E7000010000020400D030010B590F8F6
:10264000253000210122022B03D00421C163012186
:1026500022E003681C6824F00E041C60836C1C6874
:1026600024F480741C6003681C6824F001041C605E
:1026700090F84430046C03F01F0302FA03F3636024
:10268000D0E913345C60436D33B11C6824F480746A
:102690001C60D0E916345C6080F82520002280F8A8
:1026A0002420084610BD70B590F825200024012193
:1026B0002346022A07D00422C26380F8251080F83E
:1026C0002430012429E00268156825F00E05156004
:1026D0000268156825F001051560826C156825F4FF
:1026E0008075156090F84420056C02F01F0201FA15
:1026F00002F26A60D0E913255560426D32B1156867
:1027000025F480751560D0E91625556080F82510F0
:1027100080F82430816B01B18847204670BDF0B449
:10272000016C0C6801680D6890F8442002F01F06E7
:10273000042202FA06F3234211D06B070FD50B686F
:102740009B0603D40B6823F004030B6090F844103D
:1027500001F01F018A40016C4A60016B1DE00223F9
:1027600003FA06F727424FF0000C4FF0010218D091
:10277000AF0716D50C68A40605D40C6824F00A042B
:102780000C6080F8252090F8441001F01F018B4068
:10279000016C4B6080F824C0C16A00291AD0F0BCDB
:1027A00008470823B340234214D02B0712D50B68E7
:1027B00023F00E030B6090F84410036C01F01F012E
:1027C00002FA01F15960C26380F8252080F824C024
:1027D000416BE2E7F0BC704770B504000CD02B4AA7
:1027E00021681420914209D2294A0A44B2FBF0F030
:1027F0008000606427480AE0012070BD234A5242ED
:102800000A44B2FBF0F0800060642048083820647D
:10281000022084F825000A6847F6F0708243D4E964
:1028200002031843D4E904352B431843A369184322
:10283000E3691843236A1843104308602046FEF7F3
:102840004FF9A0680025B0F5804F00D16560A16CFC
:1028500020790860D4E9130141606068401E0328B4
:1028600008D82046FEF75CF9606D0560D4E91601D2
:10287000416002E06565A565E565E563012084F8D2
:10288000250084F82450002070BD00000804024098
:10289000F8FFFDBF0000024070B5044600F03CF9AF
:1028A0000546601C02D004484068044400F034F936
:1028B000401BA042FAD370BD040000202DE9F04F68
:1028C000DFF82092002301260324A9F1040B85B030
:1028D0000F2709F1040AABF1040EFAE006FA03F53A
:1028E0002A407CD091F804C00CF0030CBCF1010F1D
:1028F00002D0BCF1020F26D1D0F808C0CDF800C03C
:102900004FEA430C04FA0CF8CDF810C0DDF800C013
:102910002CEA080CCDF800C0D1F80C80DDF810C00E
:1029200008FA0CF8DDF800C048EA0C08C0F8088086
:10293000D0F804C02CEA050C0D79C5F300159D40B4
:1029400045EA0C0545600D79ED43AD070ED0C5682D
:102950004FEA430804FA08FC25EA0C05D1F808C040
:102960000CFA08FC4CEA050CC0F80CC00D7905F017
:102970000305022D16D1DD0800EB850CCDF808C04B
:10298000DCF820805D074FEAD56C07FA0CF528EAE1
:1029900005080D6905FA0CF5DDF808C045EA0805DB
:1029A000CCF8205005684FEA430CCDF808C004FA73
:1029B0000CFC25EA0C0591F804C00CF00308DDF8C6
:1029C00008C008FA0CF848EA0508C0F800804D680D
:1029D00015F4403F7CD0444DD5F860C000E077E06E
:1029E0004CF0010CC5F860C02D6E23F0030C05F00F
:1029F000010500953D4D65440295AD684FEA837C25
:102A00004FEA1C7807FA08FC25EA0C05B0F1904F54
:102A100006D0DFF8DCC0604505D14FF0010C20E0A6
:102A20004FF0000C1DE0DFF8CCC0604502D14FF044
:102A3000020C16E0DFF8C0C0604502D14FF0030C75
:102A40000FE0DFF8B8C0604502D14FF0040C08E099
:102A5000DFF8ACC0604502D14FF0050C01E04FF04B
:102A6000060C0CFA08FC4CEA050C029DC5F808C0DF
:102A7000D9F80050CC46D1F8048095435FEAC828C5
:102A800000D51543CCF80050DAF80050D446D1F800
:102A9000048095435FEA882800D51543CCF80050A0
:102AA000DBF80050DC46D1F8048095435FEA8838B3
:102AB00000D51543CCF80050DEF80050F446D1F8AC
:102AC000048095435FEAC83800D51543CCF8005020
:102AD0005B1C0A6832FA03F57FF400AF05B0BDE86D
:102AE000F08F000008040140001002400000014087
:102AF0000004004800080048000C0048001000488E
:102B0000001400480069084000D0012070470AB155
:102B1000816170478162704701488068704700009A
:102B20000400002010B5040003D0D4F8880010B1D0
:102B300007E0012010BD002084F88400204601F049
:102B400003FE2420C4F888002068016821F00101F8
:102B50000160A06A10B1204603F0E6F9204603F0B8
:102B6000D1FA0128E6D02068416821F49041416003
:102B70002068816821F0220181602068816841F02D
:102B8000080181602068016841F001010160204670
:102B9000BDE8104003F02CBA024881684268114435
:102BA000816070470400002010B50024032000F06D
:102BB00073F80F2000F008F808B1012401E000F0DC
:102BC00025F8204610BD000070B50E4E05460024C5
:102BD000706898B14FF47A71B1FBF0F00A49096856
:102BE000B1FBF0F001F006F840B9102D06D200223A
:102BF0002946501E00F030F8356000E001242046E0
:102C000070BD000004000020100000200A4882B0BF
:102C1000016E41F001010166016E01F001010091B8
:102C2000816D41F080518165806D00F08050009091
:102C300002B000F065B9000000100240002809DB76
:102C400000F01F02012191404009800000F1E020C6
:102C5000C0F8001170470000F0B40E4B1B680C4622
:102C6000C3F30223C3F10705042D00D90425191D60
:102C7000072901D2002300E0DB1E012606FA05F138
:102C8000491E214099409E40761E16403143F0BCBB
:102C900003F0F1BB0CED00E0064900F00702086804
:102CA0004FF6FF03184040EA0220034A1043086031
:102CB000704700000CED00E00000FA05F8B50400D4
:102CC0004FF0000514D094F83A00052810D094F87D
:102CD0003A0002280CD03448016E41F0010101662F
:102CE000006E00F00100009094F83A0010B104E08A
:102CF0000120F8BD002084F83900204600F058F883
:102D0000A0682A4A4FF48071402836D0602834D019
:102D100020680368E66A23F0100333430360D4E9B4
:102D200001031843D4E9033633431843237D012BB1
:102D300000D000210843616A0843A16A0843218E3C
:102D400040EAC14094F8341040EA01612068036809
:102D500013401943016020688169002909DBD4E927
:102D600006121143226A836923F03F031A43114379
:102D7000816194F83A0090B114E020680368E66A33
:102D800023F0100333430360D4E901031843267D85
:102D90002369012E00D000210B431843CBE701200B
:102DA00084F83A002846F8BD00100240113E00E0C9
:102DB00030B587B0044614216846FDF763FA2468ED
:102DC000134D0022134903234FF09040AC4209D128
:102DD000CC6C44F00104CC64C96C01F00101059194
:102DE0000E210CE00A4D2D1DAC420ED1CC6C44F0EE
:102DF0000104CC64C96C01F001010591E021CDE929
:102E0000001302926946FFF759FD07B030BD00007C
:102E10000003014000100240002138B190F83A2030
:102E2000052A03D090F83A20012A02D00121084651
:102E300070470268136843F001031360042280F8AE
:102E40003A20F4E72B492C4B0A6832214A432B499C
:102E500040B1B0F5007F086829D020F4C06040F48C
:102E600080602CE00868C0F34120022804D051F8AB
:102E7000800F20F4807022E0D1F8800020F4807070
:102E8000C1F88000086820F4C06040F40070086059
:102E9000B2FBF3F0401C00E0401E4A69520501D528
:102EA0000028F9D1486940050AD503207047C0F3CE
:102EB0004120022806D051F8800F40F4807008604D
:102EC00000207047D1F8800040F48070C1F8800085
:102ED000086820F4C06040F400700860B2FBF3F0B2
:102EE000401C00E0401E4A695205DBD50028F9D19C
:102EF000D8E700001000002040420F0000700040A2
:102F00000248816841F48041816070470070004050
:102F10002DE9F8430446006800269D4D00035ED568
:102F2000A86D0027C00008D4A86D40F08050A865A7
:102F3000A86D012700F080500090DFF85892D9F872
:102F4000001041F48071C9F80010FFF7E5FD8046DC
:102F500006E000BFFFF7E0FDA0EB080002282BD839
:102F6000D9F80000C005F5D5D5F8900010F44070F0
:102F700014D0216C814211D0D5F89000D5F8901072
:102F800020F4407041F48031C5F89010D5F89010CD
:102F900021F48031C5F89010C5F89000C00711D019
:102FA000FFF7BAFD804641F2883907E0FFF7B4FD2C
:102FB000A0EB0801494501D903260BE0D5F89000A4
:102FC0008007F3D5D5F89000216C20F440700843B9
:102FD000C5F890001FB1A86D20F08050A86520783A
:102FE000C00707D0D5F88800616820F003000843C7
:102FF000C5F888002078800707D5D5F88800A16833
:1030000020F00C000843C5F888002078400707D559
:10301000D5F88800E16820F030000843C5F8880042
:103020002078000707D5D5F88800216920F0C00076
:103030000843C5F888002078800607D5D5F88800B1
:10304000616920F440600843C5F888002078400694
:1030500007D5D5F88800A16920F440500843C5F889
:1030600088002078000607D5D5F88800E16920F4AB
:1030700040400843C5F888002088C00507D5D5F82A
:103080008800216A20F440300843C5F88800208871
:10309000800507D5D5F88800616A20F440200843F0
:1030A000C5F88800208840050FD5D5F88800A16AAA
:1030B00020F440100843C5F88800A06AB0F5801FCE
:1030C00003D1E86840F48010E860208800050FD53F
:1030D000D5F88800E16A20F440000843C5F888006C
:1030E000E06AB0F5800F03D1E86840F48010E86032
:1030F0002088C0040FD5D5F88800216B20F04070DF
:103100000843C5F88800206BB0F1807F03D1E868E0
:1031100040F48010E86020884FF0006180040ED5F4
:10312000D5F88800626B20F040601043C5F8880035
:10313000606B884203D1E86840F48010E860208822
:1031400040040ED5D5F88800A26B20F040601043F3
:10315000C5F88800A06B884203D1E86840F480106D
:10316000E860208800040FD5D5F88800E16B20F0D6
:1031700040500843C5F88800E06BB0F1805F03D190
:10318000E86840F48030E8603046BDE8F88300002D
:1031900000100240007000402DE9F0470E46050087
:1031A0004FF0000725D0DFF8AC81D8F8000000F020
:1031B0000F00B0420CD2D8F8001021F00F013143BB
:1031C000C8F80010D8F8000000F00F00B04210D18D
:1031D0002968614CC80741F2883A5AD06868DFF81C
:1031E0007C91032808D0022820682DD040050028B3
:1031F0002CDB0120BDE8F08720688001F9D5E0686C
:1032000000F00302E068C0F30310401C032A19D049
:10321000534A00BFB2FBF0F0E268C2F3062250430B
:10322000E268C2F34162521C5200B0FBF2F0484522
:1032300017D9A06810F0F00F0CD0880711D5A86836
:1032400040B10EE0474AE5E78003D0E700F0BCF864
:10325000484506D9A06820F0F00040F08000A0604A
:103260008027A068696820F003000843A060FFF78A
:1032700053FC814606E000BFFFF74EFCA0EB0901BE
:1032800051453AD8A068696800F00C00B0EB810F96
:10329000F2D12868810714D5400703D5A06840F40F
:1032A000E060A0602878000705D5A06820F4605091
:1032B00040F4E060A060A068A96820F0F000084336
:1032C00004E0802F03D1A06820F0F000A060D8F8BF
:1032D0000010404601F00F01B14216D9016821F0FB
:1032E0000F0131430160FFF717FC074607E000BFFD
:1032F000FFF712FCC11B514501D903207AE7D8F82A
:10330000000000F00F00B042F2D12878400705D548
:10331000A068E96820F4E0600843A060287800070E
:1033200006D5A068296920F4605040EAC100A06079
:1033300000F04AF8A1680C4AC1F30311515C01F096
:103340001F01C8400949086009480068BDE8F04706
:10335000FFF73ABC002002400010024000B4C40451
:103360000024F40000127A00C87300081000002046
:103370000400002001480068704700001000002091
:103380000548064900688968054AC1F30221515C75
:1033900001F01F01C84070471000002000100240DB
:1033A000D87300080548064900688968054AC1F3D2
:1033B000C221515C01F01F01C8407047100000207D
:1033C00000100240D8730008184910B58868C0F38F
:1033D00081021748012A0BD08A684310C2F3810288
:1033E000022A06D08A68C2F38102032A03D0002091
:1033F00010BD184610BDCA6802F00304CA68C2F3C3
:103400000312521C032C02D0B0FBF2F001E0B3FB1C
:10341000F2F0CA68C968C2F306225043C1F34161A1
:10342000491C4900B0FBF1F010BD00000010024043
:103430000024F4002DE9F84304007AD02078F84DF8
:10344000C00747D0A868E96800F00C0001F003014C
:103450000C2802D0082817D001E0032914D0606896
:10346000B0F5803F17D0B0F5A02F286817D020F412
:1034700080302860286820F4802028606068E0B1EF
:10348000FFF74AFB064614E02868800322D56068EF
:103490000028D2D01EE0286840F48030EDE740F4E8
:1034A00080202860F7E700BFFFF736FB801B642809
:1034B00070D828688003F7D50CE0FFF72DFB06468F
:1034C00005E000BFFFF728FB801B6428F0D82868C0
:1034D0008003F7D4207880074CD5A868E96800F00D
:1034E0000C0001F003010C2802D004280DD001E0EB
:1034F00002290AD0E068002828682BD040F48070A8
:103500002860FFF709FB064619E02868400502D548
:10351000E068002891D06868217C20F0FE4040EAF5
:1035200001606860BF480068FFF74EFB002800D1CB
:1035300020E072E1FFF7F0FA801B0228B8D8286873
:103540004005F7D56868217C20F0FE4040EA016024
:1035500068600FE020F480702860FFF7DDFA06460F
:1035600005E000BFFFF7D8FA801B0228A0D8286822
:103570004005F7D42078000729D560690028D5F8E0
:10358000940013D040F00100C5F89400FFF7C4FA8E
:10359000064606E090E000BFFFF7BEFA801B022857
:1035A00086D8D5F894008007F6D510E020F0010009
:1035B000C5F89400FFF7B0FA064604E0FFF7ACFA4E
:1035C000801B022878D8D5F894008007F6D420789C
:1035D000400761D5A86D0026C00008D4A86D40F052
:1035E0008050A865A86D012600F0805000908E489C
:1035F0000168C90511D40168804641F480710160F9
:10360000FFF78AFA074604E0FFF786FAC01B022894
:1036100052D8D8F80000C005F6D5A068012815D00A
:103620000528D5F8900016D020F00100C5F89000CC
:10363000D5F8900020F00400C5F89000A06841F291
:103640008838B8B1FFF768FA07460EE0D5F8900061
:1036500040F00100F0E740F00400C5F89000F5E705
:10366000FFF75AFAC11B414526D8D5F890008007CC
:10367000F6D50CE0FFF750FA074604E0FFF74CFAE6
:10368000C11B414518D8D5F890008007F6D41EB16B
:10369000A86D20F08050A8652078800629D5A06903
:1036A0000028D5F8980013D040F00100C5F8980024
:1036B000FFF732FA064606E075E000BFFFF72CFA86
:1036C000801B02286FD8D5F898008007F6D510E047
:1036D00020F00100C5F89800FFF71EFA064604E046
:1036E000FFF71AFA801B02285DD8D5F898008007EA
:1036F000F6D4E069F0B3A968C1F3810103295DD074
:103700000228286820F08070286003D0FFF704FAB0
:1037100004464BE0FFF700FA064604E0FFF7FCF929
:10372000801B02283FD828688001F7D4F4E90801FB
:103730006FF00F0202EB01110843218A520449087D
:1037400002EB4151A26841EA02210843217D4FF07A
:103750007E42490802EB41610843217B40EAC16097
:10376000E968324A11400843E860286840F08070F8
:10377000286000E05EE0E86840F08070E860FFF7F5
:10378000CBF9044605E000BFFFF7C6F9001B02288D
:1037900009D828688001F7D54CE000BFFFF7BCF9D5
:1037A000001B022802D90320BDE8F88328688001A5
:1037B000F4D4E8681E490840E8603BE00128F3D0F3
:1037C000E868226A00F00301914226D1616A00F0A4
:1037D000F0020901103991421FD1A26A00F4FE41A2
:1037E000B1EB022F19D194F82C2000F07841B1EB05
:1037F000C26F12D1218E00F4C00249084905A1F51B
:103800000011914209D194F8341000F0C0604908C9
:103810004906A1F1007181420CD00120C4E70000EB
:103820000010024004000020007000400C809F0146
:10383000FCFFEEFE0020B7E770B5040009D0606A17
:10384000002540B125616561A56294F85D0040B135
:103850000CE0012070BD6068B0F5827FF4D0E561B6
:10386000F2E784F85C50204600F05CF8022084F80F
:103870005D002068016821F040010160E1684FF4BB
:10388000E062914201D9002001E04FF48050B1F58F
:10389000706F02D0914200D0A562A188228901F404
:1038A000827102F404421143227C02F002021143AD
:1038B000227D02F001021143228B02F400721143B7
:1038C000227F02F03802114394F8202002F0800297
:1038D0001143228D02F40052114322681160A16944
:1038E000042202EA114194F8242000F4805002F0EE
:1038F0001002114394F8342002F008021143A28907
:1039000002F4706211430143206841602068C1697C
:1039100021F40061C1612566012084F85D0000206A
:1039200070BD000010B586B0044614216846FCF74F
:10393000A9FC1249206888421DD11148816D41F4CB
:1039400000418165816D01F400410591C16C41F038
:103950000201C164C06C694600F002000590382085
:103960000090022001900020029003900620049015
:103970000448FEF7A3FF06B010BD0000003C004065
:1039800000100240000400482DE9FF5F044690F853
:103990005C0000260E9F1D4693464FF0010901284A
:1039A0000FD04FF0010A84F85CA0FFF7B5F880460D
:1039B00094F85D00616801280DD0B1F5827F08D1CF
:1039C00003E0022004B0BDE8F09FA16809B9042813
:1039D00001D0022609E10198002876D0BBF1000F42
:1039E000FBD0002DF9D094F85D00042802D005200A
:1039F00084F85D0000202066C4F840B0A4F846506A
:103A0000A4F844500199A163E587A587E064206587
:103A1000E0684FF4E061884201D8012D04D92068A4
:103A2000426822F4805203E02068426842F48052E7
:103A3000426020680268520603D4026842F04002E5
:103A40000260E0688842606848D908B1012D3DD124
:103A5000A06B21680088C860A06B801CA063E08F09
:103A6000401EE08732E02068816889070FD5E18F2A
:103A700069B1B9F1010F0AD1A16B0988C160A06BCE
:103A8000801CA063E08F401EE0874FF00009206893
:103A90008168C9070FD0B4F8461061B1C068216CC5
:103AA0000880206C801C2064B4F84600401EA4F8F6
:103AB00046004FF00109FFF72FF8A0EB0800B842CD
:103AC00004D3781C02D003268DE08AE0E08F002822
:103AD000C9D1B4F846000028C5D177E008B1012D5E
:103AE0006DD1E08F0128A06B08D921680088C860DB
:103AF000A06B801CA063E08F801E07E02168007827
:103B00000873A06B401CA063E08F401EE08756E066
:103B10002068816889071AD5E18FC1B1B9F1010F19
:103B200015D1E18F0129A16B07D90988C160A06B6C
:103B3000801CA063E08F801E06E009780173A06BF3
:103B4000401CA063E08F401EE0874FF00009206812
:103B50008168C90728D0B4F8461029B3B4F84610D4
:103B6000012914D9C068216C0880206C801C206455
:103B7000B4F84600801EA4F84600B4F846000128B8
:103B800010D82068416841F4805141600AE0007B10
:103B9000216C0870206C401C2064B4F84600401E64
:103BA000A4F846004FF00109FEF7B6FFA0EB0800AD
:103BB000B84202D3781C02D085E7002F83D0E08F73
:103BC0000028A5D1B4F846000028A1D142463946C4
:103BD000204601F069FD10B1012620202066206EEC
:103BE00008B1012601E084F85DA0002084F85C00A3
:103BF0003046E7E610B5401EB0F1807F01D30120CA
:103C000010BD4FF0E02460610F21601702F033FC1B
:103C10000020A06107202061002010BD30B590F881
:103C20003C20012A42D0012280F83C20CA688B68DF
:103C300022F440721A434B6822F480621A430B68E4
:103C400022F400621A430B6922F480521A434B6932
:103C500022F400521A430B6B22F480421A430B8B5E
:103C600022F4702242EA0342CB6922F080521A43C6
:103C70000F4D03680024AB4202D00E4DAB4210D171
:103C80000D8D22F4700242EA05520D6A22F0807214
:103C90002A434D6A22F000722A43C96A22F0005278
:103CA0000A435A6480F83C40002030BD022030BDF9
:103CB000002C014000340140F0B590F83C20012A6E
:103CC0003AD0012580F83C50022280F83D2003685C
:103CD0005A689C68194E1A4FB34201D0BB4204D1B6
:103CE00022F4700C4A6842EA0C02DFF858C002EA7B
:103CF0000C02D1F800C04CEA020CC3F804C0026800
:103D0000B2420DD0B2F1804F0AD00F4B9A4207D089
:103D10000E4B9A4204D0BA4202D00D4B9A4204D1C3
:103D2000896824F080031943916080F83D50002198
:103D300080F83C100846F0BD0220F0BD002C014088
:103D4000003401408FFFFFFD0004004000080040E8
:103D50000040014010B50446022249B104290ED0AA
:103D6000082913D094F84700012816D0012010BD6F
:103D700094F844000128F9D184F844200FE094F825
:103D800045000128F2D184F8452008E094F8460067
:103D90000128EBD184F8462001E084F84720042272
:103DA000206801F0C4FE2068416C41F40041416488
:103DB0001049206888420ED0B0F1804F0BD00E49D8
:103DC000884208D00D49884205D00D49884202D06A
:103DD0000C49884207D181680B4A1140062906D058
:103DE000B1F5803F03D0016841F00101016000207E
:103DF00010BD0000002C01400004004000080040FD
:103E000000340140004001400700010010B50400EB
:103E100003D094F83D0010B107E0012010BD002050
:103E200084F83C00204600F023F8022084F83D008E
:103E3000211D206801F010FE012084F8480084F85C
:103E40003E0084F83F0084F8400084F8410084F884
:103E5000420084F8430084F8440084F8450084F864
:103E6000460084F8470084F83D00002010BD0000A3
:103E700008B500680649884208D10648016E41F439
:103E800000610166006E00F40060009008BD000053
:103E9000002C01400010024090F83D10012901D093
:103EA00001207047022180F83D1000680F498842C8
:103EB0000ED0B0F1804F0BD00D49884208D00D498B
:103EC000884205D00C49884202D00C49884207D16B
:103ED00081680B4A1140062906D0B1F5803F03D016
:103EE000016841F00101016000207047002C014091
:103EF0000004004000080040003401400040014040
:103F00000700010001680A6A41F211131A4207D141
:103F10000A6A9B001A4203D10A6822F001020A6071
:103F2000012180F83D1000207047000070B5044664
:103F300090F83C000025012814D0012684F83C604C
:103F4000022084F83D0022689068364B184020F427
:103F50007F409060086870282ED010DC10F00F0FA2
:103F600003D021E04FF0020070BD4FEA2012072A73
:103F70001AD2DFE802F0525252524A3840002A4B1D
:103F8000C21A984249D009DCB0F5805F0DD0B0F577
:103F9000005F1CD0B0F1101F06D13EE0102A3CD0CB
:103FA000202A3AD0502A38D0012584F83D600020DC
:103FB00084F83C00284670BDCB68D1E90121206817
:103FC00001F0C2FD2068816841F0770109E0CB680B
:103FD000D1E90121206801F0B7FD2068816841F432
:103FE00080418160E1E7CA684968206801F056FFB6
:103FF0005021206806E0CA684968206801F05FFF28
:104000006021206801F0AAFDCFE7CA6849682068EE
:1040100001F044FF40212068F4E722680146104681
:10402000F0E7000088FFCEFF20001000F0B587B059
:10403000044614216846FCF725F924492068884283
:1040400042D12348C16C41F00201C164C16C01F04E
:1040500002010591C16C41F00101C164C06C0225EF
:1040600000F0010005904FF4C04000900024CDE91D
:1040700001540626174FCDE9034669463846FEF738
:104080001DFCA8030090CDE901540420CDE90340B4
:1040900069463846FEF712FC4FF4E0600090CDE927
:1040A0000154CDE903464FF0904669463046FEF78D
:1040B00005FCA8020090CDE901540B20CDE9034096
:1040C00069463046FEF7FAFB07B0F0BD002C014010
:1040D000001002400004004870B5044690F83C000F
:1040E00000260D4601280BD0012084F83C000C2A44
:1040F0004AD007DC82B1042A20D0082A06D131E058
:10410000022070BD102A53D0142A63D0012600204B
:1041100084F83C00304670BD206801F029FD20681D
:10412000816941F0080181612068816921F0040101
:104130008161206881692A69114311E0206801F0DA
:1041400065FD2068816941F40061816120688169B1
:1041500021F480618161206881692A6941EA022134
:104160008161D4E7206801F099FD2068C16941F0C0
:104170000801C1612068C16921F00401C1612068A2
:10418000C1692A69114311E0206801F0CFFD206860
:10419000C16941F40061C1612068C16921F4806195
:1041A000C1612068C1692A6941EA0221C161AEE7A3
:1041B000206801F003FE2068016D41F008010165EF
:1041C0002068016D21F0040101652068016D2A69F4
:1041D000114311E0206801F029FE2068016D41F4CF
:1041E000006101652068016D21F48061016520682E
:1041F000016D2A6941EA0221016588E710B50400D2
:1042000003D094F83D0010B107E0012010BD00205C
:1042100084F83C00204600F022F8022084F83D009B
:10422000211D206801F018FC012084F8480084F862
:104230003E0084F83F0084F8400084F8410084F890
:10424000420084F8430084F8440084F8450084F870
:10425000460084F8470084F83D00002010BD7047F8
:1042600030B50446022269B1042912D0082917D0BA
:104270000C291CD0102921D094F84300012824D007
:10428000012030BD94F83E000128F9D184F83E2089
:104290001DE094F83F000128F2D184F83F2016E099
:1042A00094F840000128EBD184F840200FE094F806
:1042B00041000128E4D184F8412008E094F842004C
:1042C0000128DDD184F8422001E084F84320012256
:1042D000206801F01FFC194B20681949194A9842BF
:1042E00009D0884207D0904205D0174DA84202D08D
:1042F000164DA84203D1456C45F40045456420683D
:1043000098420CD0B0F1804F09D0114B984206D0A2
:10431000104B984203D0884201D0904207D1816867
:104320000D4A1140062906D0B1F5803F03D001683F
:1043300041F001010160002030BD0000002C01406F
:104340000034014000400140004401400048014069
:1043500000040040000800400700010090F88410AD
:10436000012918D0012180F884102421C0F8881078
:1043700001680A680B6823F001030B6022F000510A
:1043800000224266036819602021C0F8881080F876
:10439000842010467047022070477047704770B500
:1043A000044690F8840001281DD0012084F8840080
:1043B0002420C4F8880020680568026822F0010201
:1043C00002602068826822F060620A4382602046B0
:1043D00001F088FD206805602020C4F888000020D6
:1043E00084F8840070BD022070BD70B5044690F85A
:1043F000840001281DD0012084F884002420C4F802
:10440000880020680568026822F0010202602068C6
:10441000826822F060420A438260204601F062FD19
:10442000206805602020C4F88800002084F88400FB
:1044300070BD022070BD7047704770472DE9F04194
:1044400003680446D86919689A6840F60F0528423F
:104450004FF000054FF002060AD187067ED501F025
:10446000200702F0805C57EA0C0777D0616F3AE1D1
:10447000B24FDFF8CCC2174001EA0C0C57EA0C0C23
:104480006CD05FEAC07C0CD05FEAC15C09D54FF00C
:10449000010CC3F820C0D4F8903043F00103C4F8F5
:1044A0009030830709D5D30707D023681E62D4F85C
:1044B000903043F00403C4F8903043070AD5D30783
:1044C00008D0266804233362D4F8903043F0020306
:1044D000C4F8903003070CD501F020033B4308D00B
:1044E000266808233362D4F8903043F00803C4F8F8
:1044F000903003050BD54B0109D526684FF40063B6
:104500003362D4F8903043F02003C4F89030D4F8EC
:104510009030002B3DD0800609D501F0200002F03C
:104520008051084303D0616F09B120468847D4F811
:10453000900021688968490602D410F0280F2AD01B
:10454000204601F0B5FD2068806840061ED5206831
:10455000083050E8001F21F0400100E021E040E871
:104560000012002AF3D1D4F8800078B17549816334
:10457000D4F88000FEF797F800280AD0D4F880001D
:10458000816B00E02046BDE8F04108472046FFF778
:1045900054FFBDE8F0812046FFF74FFFC4F890506C
:1045A000F7E7D4F86CC02027BCF1010F7ED15FEA99
:1045B000C06C7BD55FEAC16C78D51020186220688A
:1045C0008068400645D5D4F880100868406800042B
:1045D000000CDED0B4F85C208242DAD9A4F85E0088
:1045E0000868006880062CD4216851E8000F20F488
:1045F000807041E80002002AF6D12068083050E8B7
:10460000001F21F0010140E80012002AF5D12068C6
:10461000083050E8001F21F0400140E80012002A55
:10462000F5D1C4F88C70E566206850E8001F21F0D1
:10463000100140E80012002AF6D1D4F88000FDF7FE
:10464000FDFF2667B4F85C00B4F85E10401A81B232
:1046500030E0B4F85C00B4F85E10401A81B2B4F8EF
:104660005E00002895D0002993D0226852E8000F00
:1046700020F4907042E80003002BF6D12F4BDB436F
:104680002068083050E8002F1A4040E8002CBCF1A8
:10469000000FF5D1C4F88C70E5666567226852E8B2
:1046A000000F20F0100042E8000300E006E0002BBD
:1046B000F4D126672046FFF770FE6AE7C60209D5E7
:1046C000560207D54FF4801018622046BDE8F0412D
:1046D000FFF7B2BE03060AD501F0800302F4000220
:1046E000134304D0A16F00297FF44CAF51E7420679
:1046F00011D54A060FD52046026852E8001F21F066
:10470000400142E80013002BF6D1C0F8887085679D
:1047100000F07AF83DE7020206D54A0004D52046AB
:10472000BDE8F041FFF787BEC001C6D50029C4DA55
:104730002046BDE8F041FFF731BE00000100001047
:10474000200100049D60000870B598B00646142151
:1047500011A8FBF797FD44216846FBF793FD254917
:104760003068884244D104200025009003956846B3
:10477000FEF7CEFB08B1FCF721FA1F49886D40F423
:1047800080208865886D00F480201690C86C40F009
:104790000200C864C86C00F0020016904815119021
:1047A0001220CDE912050720CDE9145011A91348B4
:1047B000FEF784F8134C124820601D206060102022
:1047C000C4E902058020C4E90405A561E56120462D
:1047D0002562FEF701F808B1FCF7F0F9F467002252
:1047E00005212720A662FEF737FA2720FEF726FAD2
:1047F00018B070BD0048004000100240000400489E
:10480000080002401C0300207047FEE71E2000E065
:1048100000BF401EFCD2704770B5124E0546002402
:10482000280601D5012200E0002280213046FEF753
:104830006EF9FFF7EBFF012240213046FEF767F9E2
:10484000FFF7E4FF002240213046FEF760F96806DA
:10485000641C050EE4B2082CE2D3BDE8704000F001
:1048600039B800000004004810B50D4C0122802129
:104870002046FEF74CF9012240212046FEF747F979
:10488000FFF7C4FF002280212046FEF740F9FFF722
:10489000BDFF20460022BDE810404021FEF737B999
:1048A0000004004810B50A4C002280212046FEF783
:1048B0002EF9012240212046FEF729F9FFF7A6FF35
:1048C00020460122BDE810408021FEF720B90000FB
:1048D0000004004870B5104D0024012280212846B4
:1048E000FEF715F9FFF792FF012240212846FEF757
:1048F0000EF9FFF78BFF80212846FEF703F9012808
:1049000000D10124002240212846FEF700F9FFF7DC
:104910007DFF204670BD00000004004800EB8100D0
:10492000006E00F0F840704700EB8100006E00F070
:10493000F84070478068C0F3C00070478068C0F3DB
:10494000C00070478068C0F3800070478068C0F383
:1049500080007047C06810F4406F01D0002070479D
:1049600001207047042303EAD15310B5184443696A
:10497000C1F3045107248C40A3438A40134343618D
:1049800010BD042303EAD15310B518444369C1F3A1
:10499000045107248C40A3438A401343436110BD54
:1049A00000EB8100016E21F0004111430166704768
:1049B00000EB8100016E21F0004111430166704758
:1049C00010B5012211464FF09040FEF7A0F80548BF
:1049D00000219FED050A018080ED010A80ED020AA9
:1049E00010BD0000880300200000000070B54FF0EB
:1049F00090452DED028B002201212846FEF787F815
:104A00004FF4034000F074FE06460122114628468A
:104A1000FEF77DF800BF00BF00BF00BF00220121EC
:104A20002846FEF774F84FF4044000F061FE044697
:104A3000012211462846FEF76AF8F0B260F31F24FF
:104A4000A00800EE100ADFED1A0A184CB8EE400A72
:104A50009FED1A8A208020EE200ADFED160A20EE54
:104A6000200A84ED010A00EE100AB8EE400A20EE9A
:104A7000200AF0EE000A20EE200ADFED0F0A20EEF9
:104A8000200AF2EE060A20EE200AF0EE480A01F0B3
:104A9000F3FDB5EEC00AF1EE10FA01D230EE080ACD
:104AA00084ED020ABDEC028B70BD0000880300207B
:104AB0000000B44300008038DB0F4940DB0FC940E1
:104AC0002DE9F0419AB000241794189420210FA8E2
:104AD0001994FBF7D7FB3C216846FBF7D3FB2C4826
:104AE0004FF0A041042501604FF44031C0E90114AA
:104AF000C4600461C0E90545047744774FF00108BC
:104B0000C0F8208080F82440C462046380F83840F4
:104B1000C46380F84040FDF77BFA08B1FCF74EF81B
:104B200017A91B481794FCF7BDFE08B1FCF746F81F
:104B3000184E10A906207F270F9681E89100CDE935
:104B400013540FA91248FCF719FF08B1FCF736F807
:104B500001A90920009681E8A100CDE90454802034
:104B60008DF824408DF825400A900B90CDF82080D8
:104B70008DF826408DF8304069460548FCF7CAFAA2
:104B8000002801D0FCF71AF81AB0BDE8F081000047
:104B90004C0000200800900C2DE9F04198B0202135
:104BA0000FA8FBF76FFB3C216846FBF76BFB29481E
:104BB0002749002401604FF44031C0E90114C4606A
:104BC00004250461C0E90545047744774FF00108E6
:104BD000C0F8208080F82440C462046380F8384024
:104BE000C46380F84040FDF713FA08B1FBF7E6FF15
:104BF000194E10A906207F270F9681E89100CDE974
:104C000013540FA91348FCF7B9FE08B1FBF7D6FF00
:104C100001A90920009681E8A100CDE90454802073
:104C20008DF824408DF825400A900B90CDF8208017
:104C30008DF826408DF8304069460648FCF76AFA40
:104C4000002801D0FBF7BAFF18B0BDE8F0810000E2
:104C500000010050B80000200800900C074910B572
:104C6000054808600846FDF741FB002803D0BDE871
:104C70001040FBF7A3BF10BD000C02402401002030
:104C800000B58DB030216846FBF7FCFA1149104899
:104C900008600846FDF73EFC08B1FBF78FFF0220D5
:104CA000009000208DF804008DF80500029003901C
:104CB00001210490CDE905010246079069460548A7
:104CC000FDF742FB002801D0FBF778FF0DB000BDD7
:104CD000000800504C0100200D4808B5816C41F0DF
:104CE00004018164816C01F004010091816C41F048
:104CF00001018164806C002200F001000090052118
:104D00000B20FDF7A9FFBDE808400B20FDF796BF7B
:104D1000001002402DE9F04186B014216846FBF7EF
:104D2000B1FA2C48C16C41F00401C164C16C01F0BE
:104D300004010591C16C41F02001C164C16C01F016
:104D400020010591C16C41F00101C164C16C01F009
:104D500001010591C16C41F00201C164C06C0122E6
:104D600000F002004FF09047059011463846FDF7DD
:104D7000CEFEDFF864800122C0214046FDF7C7FE69
:104D80004FF400500025CDE9000501246946029446
:104D90001248FDF793FD0226CDE9024600946946CC
:104DA00038460194FDF78AFD4FF44060CDE90005D7
:104DB000694602944046FDF781FDC020009001AA9B
:104DC000112082E8510069464046FDF777FD06B0A4
:104DD000BDE8F081001002400004004800080048CF
:104DE0000B4810B509490160002141608160C16034
:104DF000016101758161C162FDF760FF002803D088
:104E0000BDE81040FBF7DABE10BD00000003014012
:104E1000600100200B4810B5094901600021416084
:104E20008160C160016101758161C162FDF746FF6A
:104E3000002803D0BDE81040FBF7C0BE10BD000045
:104E4000040301409C010020124810B51049016084
:104E50004FF48271416000214FF47062C0E9021288
:104E60000222026101224261520282611822C0E9DB
:104E7000072107224162C0E90A1201634163FEF77C
:104E8000DBFC002803D0BDE81040FBF797BE10BD47
:104E9000003C0040D801002010B59CB000241994BB
:104EA0001A9417941894149415941C216846169417
:104EB000FBF7E8F9342107A8FBF7E4F9394838494A
:104EC000C0E900144021816041F29A01C0E9031455
:104ED0008021C0E90541FEF799FF08B1FBF76EFE9E
:104EE0004FF48050179017A92E48FFF71FF808B10C
:104EF000FBF764FE2B48FFF781F908B1FBF75EFE74
:104F00007020CDE9140414A926481694FEF7D4FEA7
:104F100008B1FBF753FE6020CDE90004029403942E
:104F200004940594002269461E480694FFF7D4F8BD
:104F300008B1FBF743FE042269461A48FFF7CCF894
:104F400008B1FBF73BFE082269461648FFF7C4F894
:104F500008B1FBF733FE0C2269461248FFF7BCF894
:104F600008B1FBF72BFE0794AA200894CDE909406D
:104F70004FF40050CDE90B400D9400030E94CDE9A1
:104F80000F401194129407A906481394FEF746FEA9
:104F900008B1FBF713FE0348FFF748F81CB010BD3B
:104FA000002C01403C020020184810B51649016051
:104FB0004FF4E1214160002181600C22C160C0E911
:104FC00004128161C161016241628162FDF7AAFD43
:104FD00008B1FBF7F3FD00210C48FFF706FA08B112
:104FE000FBF7ECFD00210948FFF7D9F908B1FBF701
:104FF000E5FD0648FFF7B2F9002803D0BDE81040F0
:10500000FBF7DCBD10BD0000004800408802002016
:10501000FEE700007CB59B4D287900269A4C0128BC
:1050200012D12E7100F0F7F92178012041B1012948
:1050300002D0022908D103E0022020702E6003E094
:10504000207094F901002860207898B101282BD0B5
:1050500002287BD100218DA2084600F052FA94F973
:1050600001009FED8F0A052871D2DFE800F08396DA
:10507000BDD6F00000218BA2084600F042FA60681D
:10508000FBF70BF9CDE900018BA20221002000F013
:1050900038FA9FED8E0B8FA28DED000B04210020BE
:1050A00000F02FFA90A298E02868002800DA2E601D
:1050B0002868042801DD0420286028686070002129
:1050C0008EA2084600F01DFA6068FBF7E6F8CDE90D
:1050D00000016078002843D08EA38FA20221002017
:1050E00000F00FFAA068FBF7D8F8CDE9000160786E
:1050F000012837D087A38DA20321002000F001FAF8
:10510000E068FBF7CAF8CDE90001607802282BD0EF
:1051100080A38BA20421002000F0F3F92069FBF7A3
:10512000BCF8CDE90001607803281FD079A389A2DB
:105130000521002000F0E5F96069FBF7AEF8CDE944
:1051400000016078042813D072A301E098E042E0E7
:1051500085A20621002000F0D4F988A207213DE0B5
:105160008AA3BAE789A3C6E788A3D2E787A3DEE7C5
:1051700086A3EAE7286800EE100AF8EEC00A94ED6C
:10518000010A9FED831A00EE810A84ED010A10EEF8
:10519000100AFBF782F87FA217E0286800EE900A59
:1051A000B8EEE01AD4ED020ADFED7E1A41EE210AD4
:1051B000C4ED020AF5EEC00AF1EE10FA01D284ED58
:1051C000020AA068FBF769F877A2CDE90001032184
:1051D000002000F096F92E6078A2062102B000208F
:1051E000BDE8704000F08DB9286800EE900AB8EE76
:1051F000E01AD4ED030ADFED751A41EE210AC4ED81
:10520000030AF5EEC00AF1EE10FA01D284ED030AAA
:10521000E068FBF742F86EA2D7E7286800EE900A34
:10522000B8EEE01AD4ED040ADFED6E1A41EE210A61
:10523000C4ED040AF5EEC00AF1EE10FA01D284EDD5
:10524000040A2069FBF729F867A2BEE7FFE7286890
:1052500000EE900AB8EEE01AD4ED050ADFED671A09
:1052600041EE210AC4ED050AF5EEC00AF1EE10FA8E
:1052700001D284ED050A6069FBF70FF860A2A4E78C
:105280007CBD00007C030020140000203D3D3D203B
:1052900045646974696E672E2E2E203D3D3D0000E9
:1052A000000000003D3D3D20464F43204D6F6E699C
:1052B000746F72203D3D3D00546172205370643A1A
:1052C00020252E326620722F73200000000000007F
:1052D00000000000416374205370643A20252E3290
:1052E0006620722F732000005B5072657373207408
:1052F0006F2054756E696E675D0000003D3D3D2076
:1053000053656C65637420506172616D203D3D3D55
:1053100000000000202000002573312E546172200F
:105320005370643A20252E32660000002573322E19
:105330005370645F4B70203A20252E3366000000C6
:105340002573332E5370645F4B69203A20252E332A
:10535000660000002573342E4375725F4B70203A4F
:1053600020252E33660000002573352E4375725FAD
:105370004B69203A20252E33660000005B50726591
:10538000737320746F20456469745D00203E0000D3
:10539000CDCCCC3D54617220537064202D3E20252D
:1053A0002E3266000AD7233C53706565645F4B70EC
:1053B000202D3E20252E3366000000005B507265D4
:1053C000737320746F20536176655D006F12833AAA
:1053D00053706565645F4B69202D3E20252E336632
:1053E000000000000AD7A33B43757272656E745FBC
:1053F0004B70202D3E20252E336600006F12033A9D
:1054000043757272656E745F4B69202D3E20252EA8
:1054100033660000FEE770B5002404F1B000C0B2AE
:1054200000F0BFF8002000F0BCF8102000F0B9F840
:105430000025002000F0C6F86D1CEDB2802DF8D3D9
:10544000641CE4B2082CE8D370BD10B56420FDF7ED
:1054500023FAAE2000F0A5F8202000F0A2F81020DA
:1054600000F09FF8B02000F09CF8C82000F099F8F8
:10547000002000F096F8102000F093F8402000F093
:1054800090F8812000F08DF8FF2000F08AF8A1202C
:1054900000F087F8A62000F084F8A82000F081F83A
:1054A0003F2000F07EF8A42000F07BF8D32000F02D
:1054B00078F8002000F075F8D52000F072F8F020A0
:1054C00000F06FF8D92000F06CF8222000F069F8A5
:1054D000DA2000F066F8122000F063F8DB2000F01C
:1054E00060F8202000F05DF88D2000F05AF81420BC
:1054F00000F057F8AF2000F054F8BDE81040FFF777
:105500008ABF0FB430B589B00C4605460FAB2021D9
:1055100068460E9A00F082FF6A462146284600F04F
:105520002BF809B030BC5DF814FB10B50446B0315F
:10553000C8B200F036F8102040EA141000F031F83C
:1055400004F00F00BDE8104000F02BB870B5203A11
:10555000D5B2FFF7EAFF074905EB4500002401EB50
:105560004005285D00F02EF8641CE4B2062CF8D348
:1055700070BD0000E073000870B515460E46044685
:105580000BE031462046FFF7E1FFA41DE4B27A2C80
:1055900002D90024761CF6B26D1C2A78002AF0D1BC
:1055A00070BD10B50446FFF75FF97820FFF734F9B6
:1055B0000020FFF731F92046FFF72EF9BDE8104033
:1055C000FFF770B910B50446FFF74EF97820FFF7E2
:1055D00023F94020FFF720F92046FFF71DF9BDE829
:1055E0001040FFF75FB970EE600A90ED000A20EE00
:1055F000202A90ED040A00EE810A80ED040AD0ED25
:10560000051AB4EEE10AF1EE10FA06DCF1EE611AC9
:10561000B4EEE10AF1EE10FA01D2C0ED041A90EDF9
:10562000010AD0ED041AD0ED032A20EE210A70EE13
:10563000E22AD0ED021A32EE000A61EEA22AC2EE90
:10564000811A90ED061A30EE210AB4EEC01AF1EE7E
:1056500010FA06D3B1EE411AB4EEC01AF1EE10FA08
:1056600001DDB0EE410AC0ED030A7047C0ED051A36
:1056700080ED062A80EC030A9FED030A80ED030A01
:1056800080ED040A7047000000000000704720EE23
:10569000212A20EE010A00EEC12A00EEA10A80EDC7
:1056A000002A81ED000A7047F8B515460E460B46F4
:1056B0000092044600224FF4C05100F02BF888B944
:1056C0003346002280212046009500F093F848B927
:1056D000334600224FF4C0612046009500F01AF8CE
:1056E000002804D0206E40F0200020660320F8BD82
:1056F00001B582B00020ADF804000A20009001231B
:1057000001AA02A90248FEF73FF9BDF804000EBD48
:10571000D80100202DE9FE4F4FF0000A98461746A9
:105720000E4604460C9D8DF804A0FDF7F5F9411BCB
:10573000A8EB0105FDF7F0F9814620684FF4C06B36
:105740000C3002902A480068C0EBC00000EB8000DB
:10575000000D6843009043E05E4506D12FB90298E2
:1057600000788DF804009DF80400B8F1FF3F37D0B1
:10577000FDF7D2F9A0EB0900A84203D215B10098B9
:1057800058B32BE02068416821F0E0014160606877
:10579000B0F5827F0BD1A068B0F5004F02D0B0F514
:1057A000806F04D12068016821F040010160A06A87
:1057B000B0F5005F09D12068016821F40051016053
:1057C0002068016841F400510160012084F85D0007
:1057D00084F85CA00320BDE8FE8F0025401E0090E9
:1057E000206880683040B842B6D10020F3E700005E
:1057F000100000202DE9F8431E46914688460446D5
:10580000089DFDF789F9401B351AFDF785F9074614
:1058100025480068C0F3CB30684338E0701C37D0AF
:10582000FDF77AF9C01BA84203D215B1009860B306
:105830002CE02068416821F0E00141606068B0F52B
:10584000827F0BD1A068B0F5004F02D0B0F5806F19
:1058500004D12068016821F040010160A06AB0F520
:10586000005F09D12068016821F4005101602068BF
:10587000016841F400510160012084F85D000020BE
:1058800084F85C000320BDE8F8830025401E0090EA
:105890002068816838EA010004D000214945BDD163
:1058A0000020F0E70121F9E7100000207047000018
:1058B00070B514462DED068BBEEE00AAB0EE408A00
:1058C00020EE0A0AF0EE418AB0EE601A0D46064656
:1058D000F0EE400ADFED3C1A01EE210A41EE610ACA
:1058E000F0EE409AB0EE609A00F07EFEF0EE400AD4
:1058F000B0EE480A00F078FEF0EE40AAF0EE490A59
:10590000B0EE690A00F094FEF0EE400AB0EE480AEC
:1059100000F08EFEF0EE400AB6EE001A3AEEA00A53
:105920004FF07E5160EE0A1A78EE210A80EEA80A46
:1059300079EEA10A30EE010A86ED000A80EEA80A8F
:1059400030EE010A85ED000A39EE210AC0EE280A80
:1059500030EE810ADFED1D0A84ED000A96ED001A93
:10596000B7EE000A11EE100A884202DD86ED000A49
:1059700006E0B5EEC01AF1EE10FA01D2C6ED000A4B
:1059800095ED001A11EE100A884202DD85ED000A3D
:1059900006E0B5EEC01AF1EE10FA01D2C5ED000A2C
:1059A00094ED001A11EE100A884204DD84ED000A1D
:1059B000BDEC068B70BDB5EEC01AF1EE10FAF7D251
:1059C000C4ED000AF4E70000D7B35D3F000000001B
:1059D00010B5FDF7E1F8BDE81040FBF7B5B800B52C
:1059E00093B038216846FAF74DFC14210EA8FAF757
:1059F00049FC0020FDF726FA0220C1010391402155
:105A000004910421CDE9080100905521CDE90A1047
:105A100007900C900D906846FDF70CFD08B172B62A
:105A2000FEE70F200E9003200F90002010901190A1
:105A3000129004210EA8FDF7AFFB002801D072B62A
:105A4000FEE713B000BD00000248016841F4700198
:105A50000160704788ED00E02DE9F0430268264BB5
:105A6000264D274E274C4FF08049984207D0484595
:105A700005D0A84203D0B04201D0A04203D122F009
:105A800070074A683A43204FDFF880C0DFF8808013
:105A900098420DD048450BD0A84209D0B04207D05B
:105AA000A04205D0B84203D0604501D0404503D1A3
:105AB00022F44075CA682A434D6922F080022A43C5
:105AC00002608A68C2620A688262984207D0A04275
:105AD00005D0B84203D0604501D0404501D10969E5
